:03000000021D07D7
:0F1D0700787FE4F6D8FD75A00075813F021CD8E7
:061D1F00853D34021A8A22
:091D1600851E29851F2A021B11FC
:101A8A00EE540344E0FEC2B4E4FCD2B50000000008
:101A9A0000000000000000EF25E0FFEE33FE92B6E2
:101AAA00C2B500000000000000000000000CBC11DC
:101ABA00D9E4F535F536EDFFC3E5369FE5359400F3
:101ACA00503EE53625E0FFE535338F82F58375F024
:101ADA0002E53412173A12157BFFAEF0E4FCEF254B
:101AEA00E0FFEE33FE92B6C2B500000000D2B500A8
:101AFA0000000CBC10E80536E53670BA053580B62C
:061B0A00D2B6D2B5D2B440
:011B100022B2
:021B11008D2520
:101B1300EE540344E4FEC2B4E4FDD2B50000000079
:101B230000000000000000EF25E0FFEE33FE92B658
:101B3300C2B500000000000000000000000DBD1150
:101B4300D9E4FCECC395255046E4FDC2B500A2B729
:101B5300E433F52BE52D25E0F52DE52C33F52CE5C8
:101B63002B422DD2B500000000000000000DBD1077
:101B7300DAE52A25E0FFE529338F82F58375F00244
:101B8300EC12173AE52C852DF01215B30C80B4D264
:031B9300B6D2B413
:011B9600222C
:1000060090009BE0FEA3E0FF750F087510007511C8
:100016000375120175130075142A751501751600FE
:100026007517057B807A007D017C0012176C9000A5
:1000360066EFF07B017A007989751E00751F0B7DCE
:10004600087F0B7E00121D16900069E4F0A374F180
:10005600F0E4F508900069E0FEA3E0FF7B017A007A
:100066007918751E0085081F7D01121D1690006AFD
:10007600E02424F0900069E03400F0E50825E0244F
:1000860018F582E43400F583E0FEA3E0FFE50825D9
:10009600E0249FF582E43400F583E0FCA3E0FDC391
:1000A6009FEC9E5013E50825E02445F582E43400D4
:1000B600F583E4F0A3F08019C3ED9FFFEC9EFEE507
:1000C6000825E02445F582E43400F583EEF0A3EF3D
:1000D600F00508E508C39408500302005A90009BF7
:1000E600A3E0FF7E00605EC206C202900042E0709E
:1000F6000204F0900016E0D3940540089000327494
:1001060003F08005E4900032F0900055E0FDC394C2
:100116001A5024EDC3940D4002D207EDD39401404A
:1001260002D203EDD394094005E4900016F0900046
:1001360055E004F0020216E4900016F090005574A3
:10014600FFF0020216EF4E6003020216C203900091
:1001560042F0C207900017747FF0E4900006F0C2E8
:100166000190003EF0900013F0300258C202900059
:1001760055E0FFD394014045EF941A5040E49000B7
:1001860000F090000EE0FFA3E0900007CFF0A3EF91
:10019600F0E475F006A490000DF0D3940D4007E04E
:1001A600240A9000C6F0900000E0D394004002D2EA
:1001B60004200910E4900000F0C2048007C204E4A1
:1001C600900000F0900016E0C3941A5003E004F08B
:1001D600900055E0FFD394014022EF9408501D9003
:1001E6000016E09F4016900032E0D394004007E0EE
:1001F60014F0D2068011E49000558008E490005572
:10020600F0900032F0C206C209E490000EF0A3F0AE
:10021600200303020C06900044E0900034F0E490C2
:100226000044F0F508E508C394075047E50825E0C3
:100236002447F582E43400F583E0FEA3E0FFE508F9
:1002460025E02445F582E43400F583E0FCA3E0FDD7
:10025600D39FEC9E4065900044E025E02445F5825E
:10026600E43400F583E0FEA3E0FFD3ED9FEC9E406F
:100276004A8042E50864077042E50825E02445F512
:1002860082E43400F583E0FEA3E0FF900045E0FC45
:10029600A3E0FDD3EF9DEE9C4021900044E025E0D5
:1002A6002445F582E43400F583E0FCA3E0FDD3EFBA
:1002B6009DEE9C4006900044E508F00508E50864BC
:1002C60008600302022B900044E0FC14601D24FB2E
:1002D600602B14603C2407704F9000107406F09059
:1002E600002F04F090003F740180359000107407D1
:1002F600F0E490002FF090003F74028023900010ED
:100306007404F090002F04F090003F7407F0E4802E
:10031600349000107405F090002F04F0E490003F34
:10032600F090002E04F08021900044E0FE24FE9020
:100336000010F0EE1490002FF0900044E0049000BE
:100346003FF0EE240290002EF0900066E030E003CD
:10035600020BE8EC1470030203F624FB700302049C
:100366007814700302050D240760030205A29000AD
:1003760010E025E02445F582E43400F583E0FEA391
:10038600E0FF7D01121C1A90006B1216FD90002FE3
:10039600121C0790006F1216FD900044E025E02421
:1003A60045F582E43400F583E0FEA3E0FF7D031209
:1003B6001C1A9000731216FD90003FE025E02445BC
:1003C600F582E43400F583E0FEA3E0FF7D04121C11
:1003D6001A9000771216FD90002EE025E02445F5D0
:1003E60082E43400F583E0FEA3E0FF7D05020643C8
:1003F600900010121C0790006B1216FD90002FE063
:1004060025E02445F582E43400F583E0FEA3E0FF11
:100416007D03121C1A90006F1216FD900044E02511
:10042600E02445F582E43400F583E0FEA3E0FF7D99
:1004360004121C1A9000731216FD90003FE025E08E
:100446002445F582E43400F583E0FEA3E0FF7D0554
:10045600121C1A9000771216FD90002EE025E0245B
:1004660045F582E43400F583E0FEA3E0FF7D060255
:100476000643900010E025E02445F582E43400F5BB
:1004860083E0FEA3E0FF7D07121C1A90006B121694
:10049600FD90002FE025E02445F582E43400F58345
:1004A600E0FEA3E0FF7D08121C1A90006F1216FDF5
:1004B600900044E025E02445F582E43400F583E02D
:1004C600FEA3E0FF7D09121C1A9000731216FD9020
:1004D600003FE025E02445F582E43400F583E0FEA4
:1004E600A3E0FF7D0A121C1A9000771216FD9000F9
:1004F6002EE025E02445F582E43400F583E0FEA3F2
:10050600E0FF7D0B020643900010E025E02445F550
:1005160082E43400F583E0FEA3E0FF7D08121C1A96
:1005260090006B1216FD90002FE025E02445F58221
:10053600E43400F583E0FEA3E0FF7D09121C1A9067
:10054600006F1216FD900044E025E02445F582E494
:100556003400F583E0FEA3E0FF7D0A121C1A90002A
:10056600731216FD90003FE025E02445F582E43441
:1005760000F583E0FEA3E0FF7D0B121C1A900077C6
:100586001216FD90002EE025E02445F582E43400A5
:10059600F583E0FEA3E0FF7D0C020643900010E029
:1005A600FD25E02445F582E43400F583E0FEA3E072
:1005B600FFED2403FD121C1A90006B1216FD90002D
:1005C6002FE0FD25E02445F582E43400F583E0FEC6
:1005D600A3E0FFED2403FD121C1A90006F1216FD16
:1005E600900044E0FD25E02445F582E43400F583DF
:1005F600E0FEA3E0FFED2403FD121C1A9000731227
:1006060016FD90003FE0FD25E02445F582E4340028
:10061600F583E0FEA3E0FFED2403FD121C1A900013
:10062600771216FD90002EE0FD25E02445F582E4C4
:100636003400F583E0FEA3E0FFED2403FD121C1A4F
:1006460090007B1216FD900001E0FFA3E090003BB6
:10065600CFF0A3EFF090007F12170900000000E42E
:10066600F50890007FE0FCA3E0FDA3E0FEA3E0FF19
:10067600E50825E025E0246BF582E43400F583E007
:10068600F8A3E0F9A3E0FAA3E0FBEF2BFFEE3AFEB6
:10069600ED39FDEC38FC90007F1216FD0508E508E3
:1006A600B405BF90002FE025E02445F582E4340030
:1006B600F583E0FEA3E0FF900010E025E02445F579
:1006C60082E43400F583E0FCA3E02FFFEC3EFE90CD
:1006D6000044E025E02445F582E43400F583E0FC9F
:1006E600A3E02FFFEC3EFE90003FE025E02445F519
:1006F60082E43400F583E0FCA3E02FFFEC3EFE909D
:10070600002EE025E02445F582E43400F583E0FC84
:10071600A3E02FFFEC3E900083F0A3EFF090007F64
:10072600E0FCA3E0FDA3E0FEA3E0FFC006C007A334
:10073600E0FEA3E0FBAA06E4F9F8D007D0061216FD
:100746006B90007F1216FD90007FA3A3E0FFA3E04D
:10075600900001CFF0A3EFF0300732900034E0FFB5
:10076600B4070B900044E07005900001800DEF7017
:1007760010900044E0B4070990003BA3E090002DE0
:10078600F090002DE0D3947840037478F090004008
:10079600E0FFA3E0900030CFF0A3EFF090002DE053
:1007A600FF900001E0FCA3E0C39FFFEC9400FE90E5
:1007B6000040F0A3EFF0C3EE648094805007E4900D
:1007C6000040F0A3F0300739900034E0FBB4070B8B
:1007D600900044E07005900030800DEB702390008F
:1007E60044E0B4071C900040E0FEA3E0FF7C007DDF
:1007F600641214DE7D7F121545900037EEF0A3EFEC
:10080600F0900040E0FEA3E0FF7C007D641214DE61
:10081600900037E0FCA3E0FD1214F0A3EEF0A3EF86
:10082600F0D3947FEE94004009900039E4F0A3746D
:100836007FF0900042E0FFB401367402F090003978
:10084600E0FCA3E0FD900003ECF0A3EDF09000289F
:10085600ECF0A3EDF0900035ECF0A3EDF090001273
:10086600F0900043F0900014ECF0A3EDF0020909BB
:10087600EF64026003020909900035E0FFA3E090EF
:100886000028CFF0A3EFF0900039E0FEA3E0FF9040
:100896000035EEF0A3EFF0900034E0FDB4070690CB
:1008A6000044E0603EED7009900044E0B407028029
:1008B60032900039E0FEA3E0FF7C007D471214DE93
:1008C600AA06AB07900003E0FEA3E0FF7D1E12140C
:1008D600DEEF2BFFEE3AFE900003F0A3EFF07D640F
:1008E6001214F0900003EEF0A3EFF0900003E0FE88
:1008F600A3E0D3947FEE94004009900003E4F0A3B4
:10090600747FF030072A900034E0FFB4070B9000A4
:1009160044E07005900028800DEF7014900044E0CC
:10092600B4070D900035A3E0900017F0900006F094
:100936003001030209D6900028E0FEA3E0FFD3941D
:1009460060EE94004016900035E0FCA3E09420ECA5
:100956009400500890003E7401F0801D900035E030
:10096600FCA3E0D39460EC9400400EEF9420EE9448
:1009760000500690003E7402F090003EE0146024A1
:1009860014602824027038900043E0FF900035E0A0
:10099600FCA3E0C39FFFEC9400FE121CF59000132D
:1009A600EFF0801B900035A3E0800A900035A3E0AD
:1009B600FFC3747F9FFF900006E02F900013F09016
:1009C6000013E0D394084008D2019000C27401F0ED
:1009D600200103020BDD900028E0FEA3E0FFD39484
:1009E60060EE94004029900035E0FCA3E0FD9420E1
:1009F600EC9400501AC3747F9FCFE49ECF2DCF3C5A
:100A060090002BF0A3EFF090003D7401F0803E9033
:100A16000035E0FEA3E0FFD39460EE9400402E90F4
:100A26000028E0FCA3E0FD9420EC9400501FC37462
:100A36007F9FCFE49ECF2DCF3CFEC3E49FFFE49E75
:100A460090002BF0A3EFF090003D7402F090003D73
:100A5600E06401705790000BE0FEA3E0FF90002BCE
:100A6600E0FCA3E0C39FEC9E7E0050047F01800261
:100A76007F00121CF5EF4E7003020B0C900035E060
:100A8600FEA3E0FF90002BE0FCA3E02FFFEC3EFE70
:100A960090000EF0A3EFF0121CF590000BE0FCA303
:100AA600E0D39FEC9E4003020B5C805390003DE038
:100AB6006402706F90002BE0FEA3E0FF121CF5901D
:100AC600000BE0FCA3E0D39FEC9E403A900035E09B
:100AD600FEA3E0FF747F9FFFE49EFE90002BE0FCE8
:100AE600A3E0C39FFFEC9EFE90000EF0A3EFF01272
:100AF6001CF590000BE0FCA3E0D39FEC9E5057E45E
:100B060090003DF08015E490003DF090002BE0FF52
:100B1600A3E090000ECFF0A3EFF0E490002BF0A33B
:100B2600F08033900042E0B4022C900035E0FEA342
:100B3600E0FF900067EEF0A3EFF0900012E0FDC337
:100B4600EF9DFFEE9400FE900067F0A3EFF090009B
:100B56000EEEF0A3EFF090000EE0FEA3E0FF121CF5
:100B6600F590000BE0FCA3E0D39FEC9E506990004B
:100B760035A3E0900012F090000EE0FCA3E0940094
:100B8600EC64809480401B300942300546C205D291
:100B960000900009E054CFF0E0FEA3E0FFEE441021
:100BA6008021C3EC64809480502930091F300023D3
:100BB600C200D205900009E054CFF0E0FEA3E0FFAA
:100BC600EE4420900009F0A3EFF08007900009E0C2
:100BD60054CFF0D209800BD205D200900009E05420
:100BE600CFF0900066E020E017900055E0C394082F
:100BF600500E3009097409F0C206C2088002D208F4
:100C060030046B200368900000E0D39400405690B7
:100C16000033E0D394004005E014F0804A900000D1
:100C2600E014F09000337402F0900011E0FFB4027B
:100C360018900009E054CFF0E0FCA3E0FDEC44205E
:100C4600900009F0A3EDF08025EFB4012190000992
:100C5600E054CFF0E0FEA3E0FFEE4410900009F070
:100C6600A3EFF08009C204900009E054CFF0900091
:100C760009E05433F0E0FCA3E0FD900066E0FB756C
:100C8600F004A4FEEC4EFFED900009CFF0A3EFF0C8
:100C9600300334EB20E049900009E0FEA3E0FFEECC
:100CA6004480900009F0A3EFF0E4F0900009E0FE24
:100CB600A3E0FF900003E0FCA3E0FDEE4CFEEF4D49
:100CC600FF900009EE8015900009E0540FF0300601
:100CD6000FE0FEA3E0FFEE4440900009F0A3EFF022
:080CE600900009E0FEA3E0FF0D
:010CEE0022E3
:0C176C008E098F0A8C0B8D0CAF03AE02AF
:10177800C211C212AB12AA13A91474FF1214CCAB73
:1017880015AA16A9171214CCE4900088F0C213C247
:1017980014E509550BFCE50A550C650C7003EC655E
:1017A8000B6003021862E5095EFCE50A5F6F7002D0
:1017B800EC6E6003021862900085EEF0A3EFF0A3D0
:1017C800E50FF0900087E0FF700302196090008534
:1017D800E05509FCA3E0550A4C701120110EAB121C
:1017E800AA13A914EF1214CCD2118034900085E00A
:1017F800FEA3E0FFE5095EFCE50A5FFDEFB5052005
:10180800EEB5041C900088E004F03011132012108B
:10181800900087E014AB15AA16A9171214CCD2129F
:10182800301125301222900085E05509FEA3E055BD
:101838000A4E7014AB12AA13A9141214B3FF900025
:1018480087E0C39F5002D213900085E0C313F0A332
:10185800E013F0A3E014F00217CB900085E50BF03D
:10186800A3E50CF0E4A3F0900087E0C3950F507B4C
:10187800900085E0FEA3E0FFE5095EFCE50A5FFD58
:10188800EF6D7002EE6C702B20110DA3E0AB12AA65
:1018980013A9141214CCD211E50F14FF900087E09D
:1018A800FE6F703130112E20122BAB15AA16A91716
:1018B800EE801D900085E05509FEA3E0550A4E70A4
:1018C8001430111120120EA3E014AB15AA16A91793
:1018D8001214CCD212900086E025E0F0900085E04A
:1018E80033F0900087E004F002186F900085E50B54
:1018F800F0A3E50CF0E4A3F0900087E0C3950F5047
:1019080057900085E0FEA3E0FFE5095EFCE50A5F6D
:10191800FDEFB5052EEEB5042A900088E004F0AB83
:1019280015AA16A9171214B3FF900087E0FED39FDB
:10193800500FAB12AA13A9141214B3FFEEC39F5091
:1019480002D213900086E025E0F0900085E033F0A5
:10195800900087E004F080A0900088E0C39511E52E
:10196800106480F87480984002D214A214E43325DD
:08197800E0FFA213E4334FFF6E
:011980002244
:101B9700900066E4F0A374F1F0E4F508900066E0C5
:101BA700FEA3E0FF7B017A007918751E0085081FE8
:101BB7007D01121D16E50825E02445F582E4340071
:101BC700F583E4F0A3F0900067E02424F09000662A
:101BD700E03400F00508E508C3940840BFE490002E
:101BE70016F090000BF0A37408F0E4900009F0A33E
:0F1BF700F0900037F0A374AFF090002D7450F011
:011C060022BB
:101C0700E025E02445F582E43400F583E0FEA3E017
:031C1700FF7D024C
:021C1A008D0932
:101C1C00E48F0D8E0CF50BF50AAD0BAC0A7B1EFA9E
:101C2C00F9F81215E08F0D8E0C8D0B8C0AAB0DAAEA
:101C3C000CA90BA80AAF09E4FCFDFE1215E08F0DF0
:061C4C008E0C8D0B8C0ACA
:011C5200226F
:1011350090009BE0FEA3E0FFEE5401FCAD07ED4CF3
:101145007003021493EF60089000BD7401F0800DE8
:10115500E4B50509ECB40105E49000BDF0EF121704
:101165004611B20111C40211C60411C80611CA07FD
:1011750011D60811CC0D11CE0E11D81011DA181197
:10118500DC1C11E82011DE3811E03C11E84011E8C3
:101195006011E87011B48011B68111B88311BAC11C
:1011A50011BCC311E8E011E8F0000011F0800880DF
:1011B500068004800280009000C37401F0803180B5
:1011C5000880068004800280009000C37402F080CD
:1011D5001F800880068004800280009000C374038D
:1011E500F0800D9000C37404F08005E49000C3F016
:1011F5009000C2E0FC6003021282300E03021282EC
:101205009000BAE0C394FF5003E004F09000BAE008
:10121500D39410404A200B479000C3E01460251476
:10122500601824FE60280470369000BBE4F0A30427
:10123500F0753E00F53FD20B80259000BBE4F0A38E
:10124500740880129000BBE4F0A37402800890003B
:10125500BBE4F0A37404F0753E00753F01D20B307A
:101265000B279000C3E07021E53F6401453E7019EE
:10127500F53EF53F9000BCE054F0F0800C9000BCCA
:10128500E054F0F0E49000BAF09000BAE0D3941086
:101295005003021425200B030214259000C3E0FD22
:1012A50064017059300A21C20A9000BBE0FEA3E038
:1012B500FFEE54FEFEEF541FFF9000BBEEF0A3EFD0
:1012C500F0E04440F002145A9000BBE0FEA3E0FFBA
:1012D500EE54FEFEEF541FFF9000BBEEF0A3EFF0BF
:1012E5009000B9E004F09000C4E0FF9000B9E0C3BD
:1012F5009F500302145AE4F0D20A02141DED640350
:101305007059301021C2109000BBE0FEA3E0FFEE43
:1013150054FEFEEF541FFF9000BBEEF0A3EFF0E08C
:101325004420F002145A9000BBE0FEA3E0FFEE5407
:10133500FEFEEF541FFF9000BBEEF0A3EFF0900010
:10134500C1E004F09000C4E0FF9000C1E0C39F50ED
:101355000302145AE4F0D21002141D9000C3E0FDFC
:1013650064047058300F21C20F9000BBE0FEA3E06B
:10137500FFEE54FEFEEF541FFF9000BBEEF0A3EF0F
:10138500F0E04480F002145A9000BBE0FEA3E0FFB9
:10139500EE54FEFEEF541FFF9000BBEEF0A3EFF0FE
:1013A5009000C0E004F09000C4E0FF9000C0E0C3EE
:1013B5009F500302145AE4F0D20F805CED64026082
:1013C5000302145A300C22C20C9000BBE0FEA3E0CD
:1013D500FFEE54FEFEEF541FFF9000BBEEF0A3EFAF
:1013E500F0EE44019000BB80689000BBE0FEA3E0F6
:1013F500FFEE54FEFEEF541FFF9000BBEEF0A3EF8F
:10140500F09000BEE004F09000C4E0FF9000BEE064
:10141500C39F4041E4F0D20C9000C47403F08035C2
:10142500C210C20AC20FC20CE49000C4F09000B909
:10143500F09000C1F09000C0F09000BEF09000BBAD
:10144500E0FEA3E0FFEE54FEFEEF541FFF9000BB4D
:10145500EEF0A3EFF090009BE0FEEE30E025EC709F
:10146500229000BBF0A37410F0A3E09000BC7009BB
:10147500E04410F054F0F08004E054EFF0D20DD2C7
:101485000E80229000BCE054EFF0C20D8017E4906E
:1014950000BAF0C20BF53EF53F9000C2F0C20E90C7
:0E14A50000BBF0A3F09000BBE0FEA3E0FF222E
:100CEF0090005674FFF0A374BFF0A3741FF0A374A9
:100CFF00FFF0A37401F0A3E4F07421A3F0A3F0A319
:100D0F00740FF0A374A0F0A3740FF0A374A0F0A35A
:100D1F007410F0A3749AF0A37410F0A3749AF07B7C
:100D2F00017A007956E4F53D7D087F80FE121D1F84
:100D3F0090005674FFF0A374EFF0A3741FF0A37428
:100D4F00FFF0A37401F0A3E4F07421A3F0A3F0A3C8
:100D5F00740FF0A374A0F0A3740FF0A374A0F0A30A
:100D6F007410F0A3749AF0A37410F0A3749AF07B2C
:100D7F00017A007956E4F53D7D087F88FE121D1F2C
:100D8F0090005674FFF0A374FBF0A3741FF0A374CC
:100D9F00FFF0A37401F0A3E4F07421A3F0A3F0A378
:100DAF00740FF0A374A0F0A3740FF0A374A0F0A3BA
:100DBF007410F0A3749AF0A37410F0A3749AF07BDC
:100DCF00017A007956E4F53D7D087F90FE121D1FD4
:100DDF0090005674FFF0A314F0A3741FF0A374FFD8
:100DEF00F0A37401F0A3E4F07421A3F0A3F0A374B3
:100DFF000FF0A374A0F0A3740FF0A374A0F0A3746A
:100E0F0010F0A3749AF0A37410F0A3749AF07B01FE
:100E1F007A007956E4F53D7D087F98FE121D1F7408
:100E2F00FF900056F0A3F0A3742FF0A374FBF0A370
:100E3F00740FF0A3E4F07421A3F0A3F0A3740FF0E8
:100E4F00A374A0F0A3740FF0A374A0F0A37410F018
:100E5F00A3749AF0A37410F0A3749AF07B017A0034
:100E6F007956E4F53D7D087FA0FE121D1F74FF909B
:100E7F000056F0A3F0A3742FF0A374FEF0A3740F29
:100E8F00F0A3E4F07421A3F0A3F0A3740FF0A37404
:100E9F00A0F0A3740FF0A374A0F0A37410F0A374C8
:100EAF009AF0A37410F0A3749AF07B017A0079562C
:100EBF00E4F53D7D087FA8FE121D1F90005674EFCC
:100ECF00F0A374FFF0A3741FF0A374FFF0A37401D9
:100EDF00F0A3E4F07421A3F0A3F0A3740FF0A374B4
:100EEF00A0F0A3740FF0A374A0F0A37410F0A37478
:100EFF009AF0A37410F0A3749AF07B017A007956DC
:100F0F00E4F53D7D087FB0FE121D1F90005674FB67
:100F1F00F0A374FFF0A3741FF0A374FFF0A3740188
:100F2F00F0A3E4F07421A3F0A3F0A3740FF0A37463
:100F3F00A0F0A3740FF0A374A0F0A37410F0A37427
:100F4F009AF0A37410F0A3749AF07B017A0079568B
:100F5F00E4F53D7D087FB8FE121D1F90005674FE0C
:100F6F00F0A304F0A3741FF0A374FFF0A37401F0B7
:100F7F00A3E4F07426A3F0A3F0A37412F0A3745C9F
:100F8F00F0A37412F0A3745CF0A37413F0A3742491
:100F9F00F0A37413F0A37424F07B017A007956E464
:100FAF00F53D7D087FC0FE121D1F74FF900056F0A7
:100FBF00A3F0A3743FF0A374FFF0E4A3F0A3F074C5
:100FCF0026A3F0A3F0A3740FF0A374A0F0A37409E9
:100FDF00F0A374C4F0A3740FF0A374A0F0A3740F64
:100FEF00F0A374A0F07B017A007956E4F53D7D08FB
:100FFF007FC8FE121D1F74FF900056F0A3F0A3745C
:10100F003FF0A374FFF0E4A3F0A3F07426A3F0A3C2
:10101F00F0A3740FF0A374A0F0A37409F0A374C429
:10102F00F0A3740FF0A374A0F0A3740FF0A374A037
:10103F00F07B017A007956E4F53D7D087FD0FE12F2
:10104F001D1F74FF900056F0A3F0A3743FF0A3741C
:10105F00FFF0E4A3F0A3F07426A3F0A3F0A3740FA2
:10106F00F0A374A0F0A37409F0A374C4F0A3740FD9
:10107F00F0A374A0F0A3740FF0A374A0F07B017A17
:10108F00007956E4F53D7D087FD8FE121D1F9000B4
:10109F0089E4F0A374B2F07B017A007989E4F53D1D
:1010AF007D01FFFE121D1F7B017A007989751E00DD
:1010BF00751F087D037F087E00121D1690008D742A
:1010CF0032F0A37430F0A37408F0A37419F0A37472
:1010DF0008F0A37432F0E4A3F0A3F0A3F0A3F0A3FD
:1010EF00F0A304F0FB7A007989753D027D067F023B
:1010FF007E00121D1F90008B740FF0A374FFF07B06
:10110F00017A007989753D017D017F017E00121DF5
:10111F001F7B017A007989751E00751F087D037F7B
:06112F00087E00021D16FF
:03000300021C9943
:101C9900C0E0C0F0C083C082C0D075D000C000C011
:101CA90001C002C003C004C005C006C007C2A81213
:101CB9001981D2A8D007D006D005D004D003D0020C
:0F1CC900D001D000D0D0D082D083D0F0D0E03284
:101CD800D2B6D2B7D2B5D2B4D2B2120CEF121C53CC
:0D1CE800E49000C5F0D288D2A8D2AF80FEF3
:101981007B017A007989751E00751F087D037F0828
:101991007E00121D169000C5E0FFC39405500DEFA7
:1019A100B40203121B979000C5E004F09000C5E05B
:1019B100C394035003021A8990009BE05401FEA3D3
:1019C100E04E7016900099E05401FEA3E04E600ACB
:1019D100121C53E49000C5F080161211359000C717
:1019E100EEF0A3EFF01200069000C9EEF0A3EFF0C5
:1019F10090009BE05401FEA3E04E700C900099E032
:101A01005401FEA3E04E6039900097E07002A3E01C
:101A11007028900093E054F0F0A3E4F0A3E054F0B8
:101A2100F0A3E4F0A3F0A304F0FB7A007989753DFB
:101A3100057D037F057E00121D1F9000C6740DF009
:101A4100229000C6E0D394004003E014F09000938C
:101A5100E0FEA3E0FF4E70309000C6E0702AEE4435
:101A610001900093F0A374FFF0A3E04401F0A3748C
:101A7100FFF0E4A3F0A3F07B017A007989753D05BD
:091A81007D037F05FE121D1F22EA
:101C53007B017A007989751E00751F027D017F0261
:101C63007E00121D1690008DE04440F0A3E0F07B4F
:101C7300017A007989753D027D017F027E00121D84
:101C83001F7B017A007989751E00751F027D017F14
:061C9300027E00021D1696
:1014B300BB010689828A83E0225002E722BBFE0237
:0914C300E32289828A83E493226A
:1014CC00BB010689828A83F0225002F722BBFE01FF
:0214DC00F322F9
:1014DE00EF8DF0A4A8F0CF8CF0A428CE8DF0A42E22
:0214EE00FE22DC
:1014F000BC000BBE0029EF8DF084FFADF022E4CCE0
:10150000F875F008EF2FFFEE33FEEC33FCEE9DECA8
:10151000984005FCEE9DFE0FD5F0E9E4CEFD22EDEE
:10152000F8F5F0EE8420D21CFEADF075F008EF2F38
:10153000FFED33FD4007985006D5F0F222C398FD29
:051540000FD5F0EA22C6
:10154500C2D5EC30E709B2D5E4C39DFDE49CFCEEC1
:1015550030E715B2D5E4C39FFFE49EFE1214F0C335
:10156500E49DFDE49CFC80031214F030D507C3E430
:061575009FFFE49EFE2230
:10157B00BB0110E58229F582E5833AF583E0F5F0AE
:10158B00A3E0225009E92582F886F008E622BBFE8B
:10159B000AE92582F8E2F5F008E222E5832AF583D1
:0815AB00E993F5F0A3E9932296
:1015B300F8BB0111E58229F582E5833AF583E8F06A
:1015C300E5F0A3F0225009E92582C8F608A6F02227
:0D15D300BBFE09E92582C8F2E5F008F2220E
:1015E000E88FF0A4CC8BF0A42CFCE98EF0A42CFCAA
:1015F0008AF0EDA42CFCEA8EF0A4CDA8F08BF0A428
:101600002DCC3825F0FDE98FF0A42CCD35F0FCEB86
:101610008EF0A4FEA9F0EB8FF0A4CFC5F02ECD394B
:0F162000FEE43CFCEAA42DCE35F0FDE43CFC22B8
:10162F0075F008758200EF2FFFEE33FECD33CDCC72
:10163F0033CCC58233C5829BED9AEC99E5829840F5
:10164F000CF582EE9BFEED9AFDEC99FC0FD5F0D6D2
:10165F00E4CEFBE4CDFAE4CCF9A88222B800C1B9FC
:10166F000059BA002DEC8BF084CFCECDFCE5F0CB3A
:10167F00F97818EF2FFFEE33FEED33FDEC33FCEB73
:10168F0033FB10D703994004EB99FB0FD8E5E4F92E
:10169F00FA227818EF2FFFEE33FEED33FDEC33FC1B
:1016AF00C933C910D7059BE99A4007EC9BFCE99A0F
:1016BF00F90FD8E0E4C9FAE4CCFB2275F010EF2F54
:1016CF00FFEE33FEED33FDCC33CCC833C810D70754
:1016DF009BEC9AE899400AED9BFDEC9AFCE899F88F
:0E16EF000FD5F0DAE4CDFBE4CCFAE4C8F92222
:0C16FD00ECF0A3EDF0A3EEF0A3EFF02260
:10170900A8828583F0D083D0821217201217201265
:101719001720121720E473E493A3C583C5F0C5838A
:10172900C8C582C8F0A3C583C5F0C583C8C582C82A
:01173900228D
:0C173A00A42582F582E5F03583F58322BA
:10174600D083D082F8E4937012740193700DA3A332
:1017560093F8740193F5828883E473740293686046
:06176600EFA3A3A380DF46
:101CF500C3EE6480948040028007C3E49FFFE49EA6
:021D0500FE22BC
:00000001FF
