:03000000021813D0
:0F181300787FE4F6D8FD75A00075813F0217E9D4
:0C159F008E228F238D248B258A2689271D
:1015AB00752E01752F58EEF52BE523F52A1218220F
:1015BB001217CCAF2F1216ECEF705BAF2B1216EC91
:1015CB00EF7051AF2A1216ECEF704BF52DE52DC3D2
:1015DB009524503B7E00E529252DFFEE3528FEEFA7
:1015EB0025E0FFEE33AB25AA26A9278F82F58312C0
:1015FB000CEBAEF0F52CEEFF1216ECEF7007AF2CE8
:10160B001216EC80061217A8E4F52E052D80BE12DB
:0E161B0017A8800880001217A8E4F52EAF2E45
:01162900229E
:0C139B008E088F098D0A8B0B8A0C890DBF
:1013A700751701751858EEF513E509F5121218228D
:1013B7001217CCAF181216ECEF60030214A5AF1387
:1013C7001216ECEF60030214A3AF121216ECEF60D3
:1013D700030214A11217CC751859AF181216ECEFA7
:1013E70060030214A5E50A6401701FC20C12169768
:1013F7008F15D20C1216978F14E515F510E514F515
:1014070011E50F25E0FFE50E8078E4F516E50A14EF
:10141700FFE516C39F503DC20C1216978F15C20CDD
:101427001216978F14E515F510E514F5117E00E5F2
:101437000F2516FFEE350EFEEF25E0FFEE33AB0B63
:10144700AA0CA90D8F82F583E5108511F0120D23E3
:10145700051680B9C20C1216978F15D20C12169763
:101467008F14E515F510E514F511AF0A7E00E50FA9
:10147700250ACFEE350ECF24FFCF34FFFEEF25E050
:10148700FFEE33AB0BAA0CA90D8F82F583E5108510
:1014970011F0120D231217A8800A8002800012177C
:0614A700A8E4F517AF17E1
:0114AD00221C
:0B182200D2B7D2B553F8DF75E8A8225A
:1017CC00D2EEC2EDC2EFD2EFD2ED0000000000C2AB
:0D17DC00EF0000000000000000C2ED002240
:1017A800D2EEC2EF000000000000000000D2ED0001
:1017B8000000000000000000D2EF00000000000060
:0417C80000000022FB
:1016EC00D2EE7E08C2EDEFC4131313540124FF9203
:1016FC00EF00D2ED00000000000000000000000030
:10170C0000C2ED00EF25E0FFDEDAC2EEC2ED000014
:10171C000000000000000000D2EDA2ECE433FFC298
:0B172C00EF000000000000C2EDD2EE54
:01173700228F
:10169700C2EEC2ED7E08000000000000000000D28C
:1016A700EDEF25E0FFA2ECE4334207000000000065
:1016B70000C2ED00000000000000000000DED7D2ED
:1016C700EEA20C92EF000000000000000000D2ED37
:1016D700000000000000000000C2ED000000000054
:0416E70000000000FF
:0116EB0022DC
:1000060090004AA3E060517B017A0079387536008A
:1000160075370B7D087F0B7E00121837900076E44B
:10002600F0A374F1F0E4F538900076E0FEA3E0FF6B
:100036007B017A00790D7536008538377D011218F7
:1000460037900077E02424F0900076E03400F00545
:1000560038E538C3940840D0E4F538E53825E0247F
:100066000DF582E43400F583E0FEA3E0FFE53825D4
:10007600E0244EF582E43400F583E0FCA3E0FDD3F2
:100086009FEC9E401DED9FFFEC9EFE121801E53889
:1000960025E02428F582E43400F583EEF0A3EFF0A2
:1000A6008011E53825E02428F582E43400F583E460
:1000B600F0A3F00538E538C39408409F90004AE065
:1000C600FEA3E0FF753E00753F047B087D017C00C2
:1000D600121274900078EFF090004AA3E07C00FDC5
:1000E6006075C204D203900026E054BFF0C20190AE
:1000F600001FE0D394144008900022740CF0800591
:10010600E4900022F0900023E0FEA3E0FFC3946495
:10011600EE9400501DEF942AEE94004005E4900002
:100126001FF0900024E004F07016900023E004F025
:10013600800EE490001FF090002304F0A37490F06A
:10014600900023E0FEA3E0D39402EE940050030255
:1001560002DDD2060202DDED4C60030202DD9000F4
:1001660003F0A37410F0E4900001F0A3F0C205C2FE
:1001760006900021F0900026E0547FF02003030251
:10018600026DC203900023E0FEA3E0FFD39402EECB
:1001960094005003020266EF9428EE940040030296
:1001A600026690001DE0FEA3E0FF90000BE0FCA3BA
:1001B600E0C39FFFEC9EFE121801900007E0FCA32F
:1001C600E0FD120C96900000EFF090001DE0FEA3FB
:1001D600E0FF90000BE0FCA3E0C39FFFEC9EFE1245
:1001E6001801D3EF9407EE648094804007900000D6
:1001F600E02405F0900000E0FFD39401400AEF945C
:100206000950057409F08009EFB40105E490000077
:10021600F090000BE0FEA3E0FF90001DE0FCA3E0E1
:10022600FDD39FEC9E4004C2028009C3ED9FEC9E65
:100236005002D2029000207404F0900000E025E005
:1002460025E0900009F0D394124007E0240A9000BC
:100256008DF0D201200010E4900000F0C20180076A
:10026600C201E4900000F0C20090001FE0C3946851
:100276005003E004F0900023E0FEA3E0FFD39402D5
:10028600EE94004035EF9428EE9400502D90001F18
:10029600E0FF900023E0FCA3E0C39FEC9400501A1B
:1002A600900022E09400400A300707E014F0D204E0
:1002B6008025E4900023F0A3801A900023E0FEA39B
:1002C600E0D39428EE94004007E4900023F0A3F0D6
:1002D600E4900022F0C2042006030208B7900078DA
:1002E600E030E0030208B7E4900025F0F538E53881
:1002F600C394075047E53825E0242AF582E4340004
:10030600F583E0FEA3E0FFE53825E02428F582E446
:100316003400F583E0FCA3E0FDD39FEC9E406E9095
:100326000025E025E02428F582E43400F583E0FE8C
:10033600A3E0FFD3ED9FEC9E4053804BE538640766
:10034600704BE53825E02426F582E43400F583E099
:10035600FEA3E0FFE53825E02428F582E43400F525
:1003660083E0FCA3E0FDD39FEC9E4021900025E0B6
:1003760025E02428F582E43400F583E0FEA3E0FFBF
:10038600D3ED9FEC9E4006900025E538F00538E554
:1003960038640860030202F4900025E024F9700333
:1003A60002045F2407600302054B90002AE0FAA3CB
:1003B600E0FBFFAE02E4FCFD90007F120E3D9000D4
:1003C60028E0FEA3E02BFFEE3AFEE4FCFD9000835E
:1003D600120E3D90007FE0FCA3E0FDA3E0FEA3E04B
:1003E600FFE4120BC5E4FBFA799C7841120ABF12AE
:1003F6000C0390007B120E3D90007BE0FCA3E0FD19
:10040600A3E0FEA3E0FF900083E0F8A3E0F9A3E0F9
:10041600FAA3E0FB120D8C90007B120E3DE47F03E5
:10042600FEFDFC90007BE0F8A3E0F9A3E0FAA3E070
:10043600FBC3120E2C90007B4012A3A3E0FEA3E0A8
:1004460024FDFFEE34FF90001D0206C8A3A3E0FFC3
:10045600A3E090001DCF0206C8900036E0FEA3E0A0
:10046600FF7C007D07120C84E4FD90007F120E3D98
:1004760090007FE0F8A3E0F9A3E0FAA3E0FBC00058
:10048600900034E0FEA3E0FF7C007D06120C84E4BD
:10049600FDD000EB2FFFEA3EFEED39FDEC38FC9077
:1004A600007F120E3D900034E0FEA3E0FFA3E0FCC7
:1004B600A3E02FFFEC3EFEE4FCFD900083120E3D10
:1004C60090007FE0FCA3E0FDA3E0FEA3E0FFE412C2
:1004D6000BC5E4FBFA799C7841120ABF120C039013
:1004E600007B120E3D90007BE0FCA3E0FDA3E0FE46
:1004F600A3E0FF900083E0F8A3E0F9A3E0FAA3E00D
:10050600FB120D8C90007B120E3DE47F03FEFDFC7A
:1005160090007BE0F8A3E0F9A3E0FAA3E0FBC312A6
:100526000E2C90007B4011A3A3E0FEA3E024FDFF68
:10053600EE34FF90001D800AA3A3E0FFA3E0900025
:100546001DCF0206C8900025E0FD24FFFFE434FF1E
:10055600FEED25E02426F582E43400F583E0FCA3D5
:10056600E0FD120C84E4FCFD90007F120E3D90002D
:100576007FE0F8A3E0F9A3E0FAA3E0FBC000900057
:1005860025E0FF25E02428F582E43400F583E0FC2D
:10059600A3E0FD7E00120C84E4FCFDD000EB2FFFEF
:1005A600EA3EFEED39FDEC38FC90007F120E3D90E0
:1005B600007FE0F8A3E0F9A3E0FAA3E0FBC0009017
:1005C6000025E0FD2401FFE433FEED25E0242AF5B5
:1005D60082E43400F583E0FCA3E0FD120C84E4FC25
:1005E600FDD000EB2FFFEA3EFEED39FDEC38FC9026
:1005F600007F120E3D900025E0FF25E02428F582BD
:10060600E43400F583E0FCA3E0FDEF25E02426F5C5
:1006160082E43400F583E0FEA3E02DFFEE3CFE907D
:100626000025E025E0242AF582E43400F583E0FC89
:10063600A3E02FFFEC3EFEE4FCFD900083120E3D8E
:1006460090007FE0FCA3E0FDA3E0FEA3E0FFE41240
:100656000BC5E4FBFA799C7841120ABF120C039091
:10066600007B120E3D90007BE0FCA3E0FDA3E0FEC4
:10067600A3E0FF900083E0F8A3E0F9A3E0FAA3E08B
:10068600FB120D8C90007B120E3DE47F03FEFDFCF9
:1006960090007BE0F8A3E0F9A3E0FAA3E0FBC31225
:1006A6000E2C90007B4011A3A3E0FEA3E024FDFFE7
:1006B600EE34FF90001D800AA3A3E0FFA3E09000A4
:1006C6001DCFF0A3EFF0900021E0702F04F0900012
:1006D6001DE0FEA3E0FFD3947AEE94005009C3EF29
:1006E6009405EE9400500B900003E4F0A37410F010
:1006F6008009900003E4F0A37404F0200521D205DC
:1007060090001DE0FFA3E090000AF0A3CFF0A3EF56
:10071600F090001DE0FFA3E0900005CF02083A200C
:1007260005030208B790001DE0FCA3E0FDE4120BF0
:10073600CAE4FBFA79807840120ABFC004C005C03B
:1007460006C007900005E0FEA3E0FF7C007D0612D0
:100756000C84AC06AD07E4120BCAD003D002D0015C
:10076600D0001209CE120C03900079EEF0A3EFF040
:100776007C007D0A120C96900005EEF0A3EFF0D3F4
:10078600947FEE94004009900005E4F0A3747FF096
:1007960090001DE0FAA3E0FBC39405EA94005048DC
:1007A600900002E004F07006900001E004F0900072
:1007B60003E0FEA3E0FF900001E0FCA3E0B50725FF
:1007C600ECB50621E4900001F0A3F0A3F0A37404B5
:1007D600F0900026E054CFF0E0FEA3E0FFEE4420C8
:1007E600900026804F0208B0D3EB947AEA9400403A
:1007F6004B900002E004F07006900001E004F090D7
:100806000003E0FEA3E0FF900001E0FCA3E0B507D3
:1008160029ECB50625E4900001F0A3F0A3F0A3743B
:1008260004F0900026E054CFF0E0FEA3E0FFEE4493
:1008360010900026F0A3EFF08077806E90000AE01B
:10084600FF90001DE0FCA3E0C39FFFEC9400FE12A6
:100856001801900007E0FCA3E0C39FEC9E504B906C
:10086600000AE0FB7A0090001DE0FCA3E0FD9BEC93
:100876009A4011900026E054CFF0E0FEA3E0FFEE90
:1008860044108016C3ED9BEC9A5016900026E05457
:10089600CFF0E0FEA3E0FFEE4420900026F0A3EFA9
:1008A600F090000AEDF0D2008007900026E054CFC9
:1008B600F0900078E0FF20E01A900023E0FCA3E02F
:1008C600C39428EC9400500B300006C204C2078083
:1008D60002D207900026E054F3F0E0FCA3E0FDEF1F
:1008E60075F004A4FEEC4EFFED900026CFF0A3EFCA
:1008F600F0300640900026E0FEA3E0FFEE44809034
:100906000026F0A3EFF0900078E030E0030209BE85
:10091600900026E0FEEE54BCFE7F00900026F0A379
:10092600EFF0900005E0FCA3E0FDEC4EFFED90003B
:1009360026CF8075900026E0540FF030040FE0FEBD
:10094600A3E0FFEE4440900026F0A3EFF0300168EC
:10095600900000E0D394004056900020E0D394002D
:10096600400F900026E054CFF0900020E014F08075
:1009760047900000E014F09000207403F030021459
:10098600900026E054CFF0E0FEA3E0FFEE44209076
:1009960000268015200221900026E054CFF0E0FECC
:1009A600A3E0FFEE4410900026F0A3EFF08009C20A
:1009B60001900026E054CFF0900026E0FEA3E0FF71
:0109C600220E
:081274008E398F3A8C3B8D3C52
:10127C0090008B74FFF0A3F0C208C209E490008ABE
:10128C00F0C20AC20B900087E53BF0A3E53CF0E40A
:10129C00A3F0900089E0FFC39B506F900087E0FCA7
:1012AC00A3E0FDE5395CF583E53A5DF582ED6582F9
:1012BC007003EC6583702120080790008BEFF0D24F
:1012CC0008EB14FF900089E0FE6F7029300826208F
:1012DC00092390008CEE801A900087E05539FEA30C
:1012EC00E0553A4E700F30080C200909A3E0149019
:1012FC00008CF0D209900088E025E0F0900087E0A7
:10130C0033F0900089E004F08088900087E53BF092
:10131C00A3E53CF0E4A3F0900089E0FFC39B504EA2
:10132C00900087E0FCA3E0FDE5395CF583E53A5DD0
:10133C00F582EDB58223ECB5831F90008AE004F0B2
:10134C0090008CE0FEEFD39E500D90008BE0FF9050
:10135C000089E0C39F5002D20A900088E025E0F09B
:10136C00900087E033F0900089E004F080A99000B1
:10137C008AE0C3953FE53E6480F87480984002D2C1
:0E138C000BA20BE43325E0FFA20AE4334FFF6F
:01139A002230
:10162A00900076E4F0A374F1F0E4F538900076E0E7
:10163A00FEA3E0FF7B017A00790D75360085383705
:10164A007D01121837900077E02424F0900076E0AC
:10165A003400F0E53825E02428F582E43400F583E7
:10166A00E4F0A3F00538E538C3940840BFE49000DD
:10167A0026F0A3F0900003F0A37410F0900007E4A2
:0C168A00F0A3740AF0D207E4900000F016
:011696002231
:0A182D00E51F752800F52902159F3C
:0918370085360E85370F02139B64
:100E490090006674FBF0A374FFF0A3741FF0A37401
:100E5900FFF0E4A3F0A3F07426A3F0A3F0A37406B3
:100E6900F0A37440F0A37406F0A37440F0A37406D1
:100E7900F0A37440F0A37406F0A37440F07B017AE8
:100E8900007966E4F51F7D087F80FE12182D900019
:100E99006674EFF0A374FFF0A3741FF0A374FFF05E
:100EA900E4A3F0A3F07426A3F0A3F0A37406F0A3BF
:100EB9007472F0A37406F0A37472F0A37406F0A31D
:100EC9007472F0A37406F0A37472F07B017A00794E
:100ED90066E4F51F7D087F88FE12182D74FF9000C7
:100EE90066F0A3F0A3741FF0A374FEF0E4A3F0A3CB
:100EF900F07426A3F0A3F0A37406F0A37472F0A310
:100F09007406F0A37472F0A37406F0A37472F0A3CC
:100F19007406F0A37472F07B017A007966E4F51F18
:100F29007D087F90FE12182D74FF900066F0A3F0E3
:100F3900A3741FF0A374FBF0E4A3F0A3F07426A339
:100F4900F0A3F0A37406F0A37472F0A37406F0A3DF
:100F59007472F0A37406F0A37472F0A37406F0A37C
:100F69007472F07B017A007966E4F51F7D087F9839
:100F7900FE12182D74FF900066F0A3F0A3741FF001
:100F8900A374EFF0E4A3F0A3F07426A3F0A3F0A3F5
:100F99007406F0A37472F0A37406F0A37472F0A33C
:100FA9007406F0A37472F0A37406F0A37472F07B54
:100FB900017A007966E4F51F7D087FA0FE12182DDD
:100FC90074FF900066F0A3F0A3741FF0A374BFF040
:100FD900E4A3F0A3F07426A3F0A3F0A37406F0A38E
:100FE9007472F0A37406F0A37472F0A37406F0A3EC
:100FF9007472F0A37406F0A37472F07B017A00791D
:1010090066E4F51F7D087FA8FE12182D74FF900075
:1010190066F0A3F0A3741EF0A374FFF0E4A3F0A399
:10102900F07426A3F0A3F0A37406F0A37472F0A3DE
:101039007406F0A37472F0A37406F0A37472F0A39B
:101049007406F0A37472F07B017A007966E4F51FE7
:101059007D087FB0FE12182D74FF900066F0A3F092
:10106900A3741BF0A374FFF0E4A3F0A3F07426A308
:10107900F0A3F0A37406F0A37440F0A37406F0A3E0
:101089007440F0A37406F0A37440F0A37406F0A3AF
:101099007440F07B017A007966E4F51F7D087FB81A
:1010A900FE12182D74FF900066F0A3F0A3743FF0B0
:1010B900A374FFF0E4A3F0A3F07426A3F0A3F0A3B4
:1010C9007413F0A37488F0A37413F0A37488F0A3C5
:1010D9007413F0A37488F0A37413F0A37488F07BDD
:1010E900017A007966E4F51F7D087FC0FE12182D8C
:1010F90074FF900066F0A3F0A3743FF0A374FFF0AF
:10110900E4A3F0A3F07426A3F0A3F0A37413F0A34F
:101119007488F0A37413F0A37488F0A37413F0A374
:101129007488F0A37413F0A37488F07B017A0079B2
:1011390066E4F51F7D087FC8FE12182D74FF900024
:1011490066F0A3F0A3743FF0A374FFF0E4A3F0A347
:10115900F07426A3F0A3F0A37413F0A37488F0A38A
:101169007413F0A37488F0A37413F0A37488F0A324
:101179007413F0A37488F07B017A007966E4F51F93
:101189007D087FD0FE12182D74FF900066F0A3F041
:10119900A3743FF0A374FFF0E4A3F0A3F07426A3B3
:1011A900F0A3F0A37413F0A37488F0A37413F0A34D
:1011B9007488F0A37413F0A37488F0A37413F0A3D4
:1011C9007488F07B017A007966E4F51F7D087FD881
:1011D900FE12182D9000387402F0A374B2F07B014E
:1011E9007A007938E4F51F7D01FFFE12182D7B0185
:1011F9007A0079387536007537087D037F087E00D7
:1012090012183790003C7432F0A304F0A37408F06C
:10121900A37419F0A37408F0A37432F0E4A3F0A343
:10122900F0A3F0A3F0A3F0A304F0FB7A00793875DA
:101239001F027D067F027E0012182D90003AE4F00D
:10124900A374FFF07B017A007938751F017D017F56
:10125900017E0012182D7B017A00793875360075E8
:0B12690037087D037F087E0002183765
:03000300021738A9
:10173800C0E0C0F0C083C082C0D075D000C000C077
:1017480001C002C003C004C005C006C007C2A81279
:1017580014AED2A8D007D006D005D004D003D0024A
:0F176800D001D000D0D0D082D083D0F0D0E032EA
:1017E900D2B6D2B5D2B2120E49E490008DF0A3F070
:0817F900D288D2A8D2AF80FE15
:1014AE007B017A0079387536007537087D027F0822
:1014BE007E0012183790008EE0FFC39405500DEF9A
:1014CE00B4020312162A90008EE004F090008EE013
:1014DE00C39403500302159E900048E0540CFEA3E3
:1014EE00E04E600A121777E490008EF0800B120027
:1014FE000690008FEEF0A3EFF090004AE0540CFE41
:10150E00A3E04E700C900048E0540CFEA3E04E6039
:10151E0039900046E07002A3E07028900042E0543B
:10152E00F0F0A3E4F0A3E054F0F0A3E4F0A3F0A3F2
:10153E0004F0FB7A007938751F057D037F057E0068
:10154E0012182D90008D7412F02290008DE0D3941D
:10155E00004003E014F090004AE07002A3E0703007
:10156E0090008DE0702A900042E0440CF0A374FFCE
:10157E00F0A3E0440CF0A374FFF0E4A3F0A3F07B1F
:10158E00017A007938751F057D037F05FE12182D2F
:01159E00222A
:101777007B017A0079387536007537027D017F0263
:101787007E0012183790003CE04440F0A3E0F07B65
:10179700017A007938751F027D017F027E000218E9
:0117A7002D14
:1009C700020C6FE86480F8E933E83360110460F0E3
:1009D700ED33EC337009E8FCE9FDEAFEEBFF220496
:1009E70060DED3EB9FEA9EE99DE8C2E78CF0C2F791
:1009F70095F0400CE8CCF8E9CDF9EACEFAEBCFFB5D
:100A0700120C3A85D0F05804700320D5B3E804706F
:100A1700075002B2D5020C7992D5EC0460F7E4CC0A
:100A2700C0E0C398F8603B94186008400DD0E0FB25
:100A3700020C51E4FBFAC9FC8028E830E406E4C95B
:100A4700FBE4CAFCE830E305E4C9CACBFCE8540779
:100A57006010F8C3E913F9EA13FAEB13FBEC13FC84
:100A6700D8F130F52FC3E49CFCEF9BFFEE9AFEED27
:100A770099FDD0E0FBEF4E4D4C701222DB03020CC8
:100A870076EC2CFCEF33FFEE33FEED33FDED30E774
:100A9700EB020C51EF2BFFEE3AFEED39FDD0E0FBF8
:100AA70050130BBB0003020C79ED13FDEE13FEEFA1
:080AB70013FFEC13FC020C51CB
:100ABF00EC4D6011E8497017ED33EC3304600DE431
:100ACF00FCFFFEFD22E933E8330470F8020C6F12CD
:100ADF000C3A58046009E4CC2481500628500902CE
:100AEF000C79284003020C76C0E0EB4A7044B980C1
:100AFF0006D0E0FB020C65EF4E701CBD8008EBFFCB
:100B0F00EAFEE9FD80EBE98DF0A4FEE5F0020BA80B
:100B1F00E9CDF9EAFEEBFFEF89F0A4FCE5F0CE8911
:100B2F00F0A42EFFE435F0CD89F0A42DFEE435F0CE
:100B3F008067EF4E7005BD80D780C3EF8BF0A4ACFC
:100B4F00F0EE8BF0A42CFCE435F0F8EF8AF0A42C37
:100B5F00E5F038FCE433CB8DF0A42CFCE5F03BF84A
:100B6F00EE8AF0A42CFCE5F038F8E433CF89F0A43A
:100B7F002CFCE5F038CF3400CE89F0A42FFFE5F040
:100B8F003EFEE433C98DF0A42EFEE5F039CD8AF098
:100B9F00A42FFFE5F03EFEE43DFD33D0E0FB500710
:100BAF000BBB000F020C79EC2CFCEF33FFEE33FE86
:060BBF00ED33FD020C51B4
:100BC50075F020800E75F010800575F0087D007EAB
:100BD500007F003392D530D503120E1EEC33401042
:100BE500EF33FFEE33FEED33FDEC33FCD5F0ED22B4
:0E0BF500E5F0247EA2D513CC92E7CDCEFF22F0
:100C0300EDD2E7CD33EC3392D524814006E4FFFEE9
:100C1300FDFC22FCE4CFCECDCC24E0501174FF8048
:100C2300EDC3CC13CCCD13CDCE13CECF13CF0470E5
:070C3300F030D5DE020E1EB9
:100C3A00E9D2E7C933E833F892D5EDD2E7CD33EC00
:070C4A0033FC5002B2D52279
:100C5100EC30E7100FBF000C0EBE00080DBD000404
:100C61000BEB6014A2D5EB13FCED92E7FD2274FFB0
:100C7100FCFDFEFF22E480F8A2D574FF13FC7D8009
:030C8100E480EF1D
:100C8400EF8DF0A4A8F0CF8CF0A428CE8DF0A42E84
:020C9400FE223E
:100C9600BC000BBE0029EF8DF084FFADF022E4CC42
:100CA600F875F008EF2FFFEE33FEEC33FCEE9DEC0B
:100CB600984005FCEE9DFE0FD5F0E9E4CEFD22ED51
:100CC600F8F5F0EE8420D21CFEADF075F008EF2F9B
:100CD600FFED33FD4007985006D5F0F222C398FD8C
:050CE6000FD5F0EA2229
:100CEB00BB0110E58229F582E5833AF583E0F5F047
:100CFB00A3E0225009E92582F886F008E622BBFE24
:100D0B000AE92582F8E2F5F008E222E5832AF58369
:080D1B00E993F5F0A3E993222E
:100D2300F8BB0111E58229F582E5833AF583E8F002
:100D3300E5F0A3F0225009E92582C8F608A6F022BF
:0D0D4300BBFE09E92582C8F2E5F008F222A6
:100D500075F008758200EF2FFFEE33FECD33CDCC5A
:100D600033CCC58233C5829BED9AEC99E5829840DD
:100D70000CF582EE9BFEED9AFDEC99FC0FD5F0D6BA
:100D8000E4CEFBE4CDFAE4CCF9A88222B800C1B9E4
:100D90000059BA002DEC8BF084CFCECDFCE5F0CB22
:100DA000F97818EF2FFFEE33FEED33FDEC33FCEB5B
:100DB00033FB10D703994004EB99FB0FD8E5E4F916
:100DC000FA227818EF2FFFEE33FEED33FDEC33FC03
:100DD000C933C910D7059BE99A4007EC9BFCE99AF7
:100DE000F90FD8E0E4C9FAE4CCFB2275F010EF2F3C
:100DF000FFEE33FEED33FDCC33CCC833C810D7073C
:100E00009BEC9AE899400AED9BFDEC9AFCE899F876
:0E0E10000FD5F0DAE4CDFBE4CCFAE4C8F92209
:0E0E1E00C3E49FFFE49EFEE49DFDE49CFC22E5
:100E2C00EB9FF5F0EA9E42F0E99D42F0E89C45F01C
:010E3C002293
:0C0E3D00ECF0A3EDF0A3EEF0A3EFF02228
:10180100C3EE6480948040028007C3E49FFFE49E9E
:02181100FE22B5
:00000001FF
