:060000000A128A11FC2F18
:100D3E000A128A110C27770883120313B100760862
:100D4E00B00008008F3083160313850086018030B3
:100D5E0087008801073089000F30910008000A12C1
:100D6E008A11A9260A128A110A128A11C4260A1297
:100D7E008A110A128A119F26080083120313071084
:100D8E008710071187110712871208108810081193
:100D9E0088110812881208000A128A11B6260A1241
:100DAE008A110A128A1181270A128A1183120313D9
:100DBE002908AF002808AE00D82EF50083120313C1
:100DCE00090CF200720C0139F300F401750884006D
:100DDE00730883138000840A74088000090C01399B
:100DEE00F200F3017008840072088000840A730810
:100DFE00800009080139F200F301710884007208BD
:100E0E008000840A7308800008002430F8007808F7
:100E1E00F0002630F9007908F10022300A128A110A
:100E2E00E4260A128A1183120313220823040319DB
:100E3E002C2F24082504031D2C2F26082704031D00
:100E4E002C2F0130A0000030A1002208230403192A
:100E5E003C2F2408250403193C2F26082704031DC4
:100E6E003C2F0230A0000030A10022082304031DF5
:100E7E004C2F2408250403194C2F26082704031D84
:100E8E004C2F0330A0000030A10022082304031DC4
:100E9E005C2F2408250403195C2F26082704031948
:100EAE005C2F0430A0000030A10022082304031D93
:100EBE006C2F24082504031D6C2F26082704031904
:100ECE006C2F0530A0000030A10022082304031966
:100EDE007C2F24082504031D7C2F260827040319C4
:100EEE007C2F0630A0000030A1002108F70020085A
:100EFE00F60008000A128A110C270A128A117708C6
:100F0E0083120313AD007608AC003108803AFA0064
:100F1E002D08803A7A02031D962F2C083002031CEE
:100F2E00A32F06308312031330063104031DBA2F8C
:100F3E002C032D04031DBA2F013083120313AA00B4
:100F4E000030AB008816881188100230FC00043087
:100F5E00FB00BA30FA00FA0BB22FFB0BB22FFC0BD0
:100F6E00B22F0000F12F831203132D08803AFA00DE
:100F7E003108803A7A02031DC62F30082C02031C5A
:100F8E00D32F8312031330033104031DEA2F0630CF
:100F9E002C062D04031DEA2F023083120313AA0020
:100FAE000030AB008812881588100230FC00043027
:100FBE00FB00BA30FA00FA0BE22FFB0BE22FFC0B10
:100FCE00E22F0000F12F83120313AA01AB01881246
:100FDE0088118810831203132D08B1002C08B0005D
:100FEE002B08A9002A08A800080083010A128A11FA
:020FFE00D32EF0
:02400E00F2EFCF
:00000001FF
