:060000000A128A11F02F24
:100C20000A128A117B27770883120313D5007608EE
:100C3000D4000800F00083160313981C1B2E7008C4
:100C400083120313990008002030831603139800C1
:100C50000C30990083120313981718131816981163
:100C600008008F30831603138500860180308700CB
:100C70008801073089000F309100080083120313A8
:100C800007108710071187110712871208108810A4
:100C9000081188110812881208007E088A007F084F
:100CA00082004D260A128A118000840A04087D06FB
:100CB00003190034FF0A0319FE0A512E0A128A1181
:100CC00031260A128A110A128A113E260A128A1144
:100CD0000A128A1110260A128A110A128A1124266F
:100CE000080076300A128A111A260A128A117D0823
:100CF000F3007C08F2000A128A1148270A128A11AE
:100D0000730883120313CA007208C9004A08F1006D
:100D10004908F0000A128A118E2608008316031370
:100D2000981C8E2E7008F2007208F400740883126A
:100D3000031399000330F3009730F200F20B9E2E5C
:100D4000F30B9E2EA32E7108F2007208F5007508B1
:100D500083120313990008000A128A115E260A12F0
:100D60008A110130FC000030FD000A128A11712640
:100D70000A128A11063083120313D3001330D200F3
:100D8000B130D100D10BC22ED20BC22ED30BC22E4A
:100D9000C92EB12EF50083120313090CF200720C58
:100DA0000139F300F401750884007308831380008F
:100DB000840A74088000090C0139F200F3017008FC
:100DC000840072088000840A7308800009080139D1
:100DD000F200F3017108840072088000840A73082D
:100DE00080000800433475347234723465346E34D4
:100DF00074342034483461346C346C3420345334CB
:100E000074346134743465343A34203400344334F7
:100E100075347234723465346E347434203444342E
:100E20006934723465346334743469346F346E34C5
:100E30003A34203400341030831603139F00831299
:100E400003139F17332FE3309F05462F1F08E33905
:100E50000438312F1F08E3390838312F1F08E339D0
:100E60000C389F00462F7108003A0319382F462F7F
:100E70007008013A0319232F033A0319262F013A68
:100E800003192A2F073A03192E2F462F1F14080083
:100E90007308F1007208F0000A128A111B270A1267
:100EA0008A11831203139F149F18542F8316031360
:100EB0001E08F400F5017408F6007508F7008312A7
:100EC00003131E08F400F5017408F8007508F90012
:100ED0007808F500F40176087404FA0077087504C0
:100EE000FB001F10E830FA000330FB007B08F30022
:100EF0007A08F20008004D30F8007808F0004F3012
:100F0000F9007908F1004B300A128A11CA260A1238
:100F10008A11831203134B084C0403199B2F4D08AD
:100F20004E04031D9B2F4F08500403199B2F0130C3
:100F3000C9000030CA004B084C040319AB2F4D0800
:100F40004E04031DAB2F4F085004031DAB2F02307E
:100F5000C9000030CA004B084C040319BB2F4D08D0
:100F60004E040319BB2F4F085004031DBB2F033041
:100F7000C9000030CA004B084C04031DCB2F4D089C
:100F80004E040319CB2F4F085004031DCB2F043000
:100F9000C9000030CA004B084C04031DDB2F4D086C
:100FA0004E040319DB2F4F0850040319DB2F0530C3
:100FB000C9000030CA004B084C04031DEB2F4D083C
:100FC0004E04031DEB2F4F0850040319EB2F06307E
:100FD000C9000030CA004A08F7004908F6000800B6
:100FE00083134930FD000630FE00F230FF00203050
:100FF00084000A128A11512683010A128A11AC2E2A
:02400E00F2EFCF
:00000001FF
