:03000000020625D0
:0F062500787FE4F6D8FD75A00075812A020611D2
:030634007D08FE40
:06063700852A1902042AC5
:09063D0085220E85230F0204B191
:10042A00EE540344E0FEC2B4E4FCD2B5000000007E
:10043A0000000000000000EF25E0FFEE33FE92B757
:10044A00C2B500000000000000000000000CBC1152
:10045A00D9E4F51AF51BEDFFC3E51B9FE51A9400D5
:10046A00503EE51B25E0FFE51A338F82F58375F0D0
:10047A0002E51912059C120537FFAEF0E4FCEF25E0
:10048A00E0FFEE33FE92B7C2B500000000D2B5001D
:10049A0000000CBC10E8051BE51B70BA051A80B6F3
:0604AA00D2B7D2B5D2B4B6
:0104B0002229
:0204B1008D0AB2
:1004B300EE540344E4FEC2B4E4FDD2B500000000F0
:1004C30000000000000000EF25E0FFEE33FE92B7CE
:1004D300C2B500000000000000000000000DBD11C7
:1004E300D9E4FCECC3950A5046E4FDC2B500A2B6BC
:1004F300E433F510E51225E0F512E51133F511E5C6
:10050300104212D2B500000000000000000DBD1023
:10051300DAE50F25E0FFE50E338F82F58375F002F0
:10052300EC12059CE5118512F012056F0C80B4D214
:03053300B7D2B488
:0105360022A2
:1000060074FF900030F0A3F0A3743FF0A374FFF0E8
:10001600E4A3F0A3F07426A3F0A3F0A3740BF0A35B
:1000260074B8F0A3740BF0A374B8F0A3740BF0A328
:1000360074B8F0A3740BF0A374B8F07B017A00795E
:1000460030E4F52A7F8012063490003074FFF0A366
:1000560074FBF0A3743FF0A374FFF0E4A3F0A3F0E5
:100066007426A3F0A3F0A3740BF0A374B8F0A374E2
:100076000BF0A374B8F0A3740BF0A374B8F0A374D8
:100086000BF0A374B8F07B017A007930E4F52A7F8F
:100096008812063474FF900030F0A3F0A3743FF08A
:1000A600A374FFF0E4A3F0A3F07426A3F0A3F0A3D7
:1000B600740BF0A374B8F0A3740BF0A374B8F0A398
:1000C600740BF0A374B8F0A3740BF0A374B8F07BB0
:1000D600017A007930E4F52A7D087F90FE12063712
:1000E60074FF900030F0A3F0A3743FF0A374FFF008
:1000F600E4A3F0A3F07426A3F0A3F0A3740BF0A37B
:1001060074B8F0A3740BF0A374B8F0A3740BF0A347
:1001160074B8F0A3740BF0A374B8F07B017A00797D
:1001260030E4F52A7D087F98FE12063774FF9000AA
:1001360030F0A3F0A3743FF0A374FFF0E4A3F0A3A0
:10014600F07426A3F0A3F0A3740BF0A374B8F0A385
:10015600740BF0A374B8F0A3740BF0A374B8F0A3F7
:10016600740BF0A374B8F07B017A007930E4F52AB9
:100176007D087FA0FE12063774FF900030F0A3F0D2
:10018600A3743FF0A374FFF0E4A3F0A3F07426A3D6
:10019600F0A3F0A3740BF0A374B8F0A3740BF0A350
:1001A60074B8F0A3740BF0A374B8F0A3740BF0A3A7
:1001B60074B8F07B017A007930E4F52A7D087FA8CF
:1001C600FE12063774FF900030F0A3F0A3743FF0E0
:1001D600A374FFF0E4A3F0A3F07426A3F0A3F0A3A6
:1001E600740BF0A374B8F0A3740BF0A374B8F0A367
:1001F600740BF0A374B8F0A3740BF0A374B8F07B7F
:10020600017A007930E4F52A7D087FB0FE120637C0
:1002160074FF900030F0A3F0A3743FF0A374FEF0D7
:10022600E4A3F0A3F07426A3F0A3F0A3740BF0A349
:1002360074B8F0A3740BF0A374B8F0A3740BF0A316
:1002460074B8F0A3740BF0A374B8F07B017A00794C
:1002560030E4F52A7D087FB8FE12063774FF900059
:1002660030F0A3F0A3743FF0A374FFF0E4A3F0A36F
:10027600F07426A3F0A3F0A3740BF0A374B8F0A354
:10028600740BF0A374B8F0A3740BF0A374B8F0A3C6
:10029600740BF0A374B8F07B017A007930E4F52A88
:1002A6007D087FC0FE12063774FF900030F0A3F081
:1002B600A3743FF0A374FFF0E4A3F0A3F07426A3A5
:1002C600F0A3F0A3740BF0A374B8F0A3740BF0A31F
:1002D60074B8F0A3740BF0A374B8F0A3740BF0A376
:1002E60074B8F07B017A007930E4F52A7D087FC87E
:1002F600FE12063774FF900030F0A3F0A3743FF0AF
:10030600A374FFF0E4A3F0A3F07426A3F0A3F0A374
:10031600740BF0A374B8F0A3740BF0A374B8F0A335
:10032600740BF0A374B8F0A3740BF0A374B8F07B4D
:10033600017A007930E4F52A7D087FD0FE1206376F
:1003460074FF900030F0A3F0A3743FF0A374FFF0A5
:10035600E4A3F0A3F07426A3F0A3F0A3740BF0A318
:1003660074B8F0A3740BF0A374B8F0A3740BF0A3E5
:1003760074B8F0A3740BF0A374B8F07B017A00791B
:1003860030E4F52A7D087FD8FE120637900000E497
:10039600F0A374B2F07B017A007900E4F52A7D01BE
:1003A600FFFE1206377B017A00790075220075235D
:1003B600087D037F087E0012063D9000047432F02B
:1003C600A37430F0A37408F0A37419F0A37408F0B2
:1003D600A37432F0E4A3F0A3F0A3F0A3F0A3F0A378
:1003E60004F0FB7A007900752A027D067F027E0002
:1003F600120637900002740FF0A374FFF07B017AA7
:10040600007900752A017D017F017E001206377B87
:10041600017A0079007522007523087D037F087E26
:040426000002063D8D
:030003000205A84B
:1005A800C0E0C0F0C083C082C0D075D000C000C019
:1005B80001C002C003C004C005C006C007C2A8121B
:1005C80005E7D2A8D007D006D005D004D003D002C2
:0F05D800D001D000D0D0D082D083D0F0D0E0328C
:10061100D2B7D2B5D2B243AF01120006D288D2A866
:04062100D2AF80FED6
:1005E7007B017A00790075220075230A7D017F0A55
:1005F7007E0012063D7B017A007900752200752383
:0A0607000B7D0C7F0B7E0002063D08
:10053700BB0110E58229F582E5833AF583E0F5F002
:10054700A3E0225009E92582F886F008E622BBFEDF
:100557000AE92582F8E2F5F008E222E5832AF58325
:08056700E993F5F0A3E99322EA
:10056F00F8BB0111E58229F582E5833AF583E8F0BE
:10057F00E5F0A3F0225009E92582C8F608A6F0227B
:0D058F00BBFE09E92582C8F2E5F008F22262
:0C059C00A42582F582E5F03583F583226A
:00000001FF
