:0400000070EFFCF0B1
:020000040001F9
:10F7D6002F6E6CA2FED72FC06DFF120001ECFCF05D
:10F7E600F8ECFBF00AECFCF01200838E839C839A03
:10F7F600839883968394839283901200000E956E6D
:10F80600100E946E000E966E040E986E1200200E68
:10F816006C6E0F0E6F6E000E7C6E6B8E6B9C6B8823
:10F82600120005D06BA203D06B926B986B88A4AACA
:10F83600F9D76E5012000B000C000D000E000F00E1
:10F8460010001100120013001400150016002FC03E
:10F8560031F03050326E6CA2FED731C06DFF6CA213
:10F86600FED732C06DFF1200C79EC79CC69EC688D3
:10F87600C696C694C682C6909D96C68A949A949653
:10F88600979E1200000E486E0B0E476E47C02FF073
:10F8960048C030F017ECFDF02FC049F030C04AF0F8
:10F8A60049C045F04AC046F01200E40E306E170E0D
:10F8B6002F6E17ECFDF0040E476ED89030322F32C3
:10F8C600472EFBD7FF0E2F14486E0F0E3014496ECD
:10F8D60048C045F049C046F012003C0EF66EF80EE0
:10F8E600F76E010EF86E00EE78F010EE18F00900D3
:10F8F600F5CFEEFFE550E150FAE100EE60F0180EAC
:10F90600EE6AE806FDE100EE01F02E0EEE6AE8066C
:10F91600FDE10001D8EFFCF037C02FF038C030F021
:10F92600000E326E0A0E316E58ECFDF02FC03AF022
:10F9360030C03BF008D0210E396E760EE82EFED789
:10F94600392EFCD700D03A06D8A03B063A28F3E178
:10F956003B28D8B41200EFD7E00E386E000E376E93
:10F96600000E3A6E000E396E19D02F503924356EBE
:10F9760030503A20366E3750352638503622D890D9
:10F986003934D96E3A34DA6E370ED926000EDA22B9
:10F9960035C0DEFF36C0DDFF394A3A2A3150395CC0
:10F9A60032503A58D8B01200E0D7010E386EF40E35
:10F9B600376E8FECFCF0F1ECFBF037ECFCF09AECD8
:10F9C600FDF0730E4F6E4F50EBECFBF014ECFCF0B9
:10F9D600506E690E5018D8A40CD058ECFCF045C0F7
:10F9E6004BF046C04CF04BC02FF04CC030F02AEC28
:10F9F600FCF0730E5018D8A410D0000E466E010EFF
:10FA0600456E45ECFCF045C04DF046C04EF04DC08D
:10FA16002FF04EC030F02AECFCF0010E386EF40EDA
:10FA2600376E8FECFCF0CFD7000E3E6E000E3D6EAB
:10FA3600000E406E000E3F6E2F50376E386A2FC094
:10FA460031F030C032F032C031F0326A3150396EA6
:10FA56003A6A829439C0C9FFC7A0FED7C9CF33F02E
:10FA6600346A37C0C9FFC7A0FED7C9CF35F0366A9A
:10FA76003FC0C9FFC7A0FED7C9CF41F0426A3DC00B
:10FA8600C9FFC7A0FED7C9CF43F0446A828441505C
:10FA9600326E316A435031243B6E445032203C6E04
:10FAA6003BC02FF03CC030F01200000E346E32AE78
:10FAB60006D0316C321ED8B0322A010E346E30AE0A
:10FAC60006D02F6C301ED8B0302A010E341A000E24
:10FAD600366E000E356E31503210D8B41CD0010E81
:10FAE600336E04D0D89031363236332A32AEFAD756
:10FAF600D8903536363631502F5C32503058D8A033
:10FB060005D031502F5E3250305A3580D89032327F
:10FB16003132332EEDD73450D8B404D0356C361E7E
:10FB2600D8B0362A35C02FF036C030F012003F0E5E
:10FB36003C6EFE0E3B6E1F0E3E6E3D68010E406E25
:10FB4600000E3F6E210E426E210E416E0F0E446E68
:10FB5600A00E436E0F0E466EA00E456E100E486E3A
:10FB66009A0E476E100E4A6E9A0E496E000E306E51
:10FB7600800E2F6E000E326E080E316E3B0E336E07
:10FB8600000E346EAFECFCF03F0E3C6EFB0E3B6E8F
:10FB96001F0E3E6E3D68010E406E000E3F6E210E3A
:10FBA600426E210E416E0F0E446EA00E436E0F0E76
:10FBB600466EA00E456E100E486E9A0E476E100EDB
:10FBC6004A6E9A0E496E000E306E880E2F6E000E2B
:10FBD600326E080E316E3B0E336E000E346EAFEC95
:10FBE600FCF03F0E3C6EEF0E3B6E1F0E3E6E3D6808
:10FBF600010E406E000E3F6E210E426E210E416ECA
:10FC06000F0E446EA00E436E0F0E466EA00E456E8E
:10FC1600100E486E9A0E476E100E4A6E9A0E496E78
:10FC2600000E306E900E2F6E000E326E080E316E84
:10FC36003B0E336E000E346EAFECFCF03F0E3C6EA6
:10FC4600BF0E3B6E1F0E3E6E3D68010E406E000EEF
:10FC56003F6E210E426E210E416E0F0E446EA00EB7
:10FC6600436E0F0E466EA00E456E100E486E9A0E2F
:10FC7600476E100E4A6E9A0E496E000E306E980E42
:10FC86002F6E000E326E080E316E3B0E336E000E76
:10FC9600346EAFECFCF03E0E3C6E3B681F0E3E6EC3
:10FCA6003D68010E406E000E3F6E210E426E210E23
:10FCB600416E0F0E446EA00E436E0F0E466EA00EE2
:10FCC600456E100E486E9A0E476E100E4A6E9A0ECC
:10FCD600496E000E306EA00E2F6E000E326E080EAC
:10FCE600316E3B0E336E000E346EAFECFCF03B0E05
:10FCF6003C6E3B681F0E3E6E3D68010E406E000E68
:10FD06003F6E210E426E210E416E0F0E446EA00E06
:10FD1600436E0F0E466EA00E456E100E486E9A0E7E
:10FD2600476E100E4A6E9A0E496E000E306EA80E81
:10FD36002F6E000E326E080E316E3B0E336E000EC5
:10FD4600346EAFECFCF02F0E3C6E3B681F0E3E6E21
:10FD56003D68010E406E000E3F6E210E426E210E72
:10FD6600416E0F0E446EA00E436E0F0E466EA00E31
:10FD7600456E100E486E9A0E476E100E4A6E9A0E1B
:10FD8600496E000E306EB00E2F6E000E326E080EEB
:10FD9600316E3B0E336E000E346EAFECFCF03F0E50
:10FDA6003C6E3B681F0E3E6EFE0E3D6E010E406EB3
:10FDB600000E3F6E210E426E210E416E0F0E446EF6
:10FDC600A00E436E0F0E466EA00E456E100E486EC8
:10FDD6009A0E476E100E4A6E9A0E496E000E306EDF
:10FDE600B80E2F6E000E326E080E316E3B0E336E5D
:10FDF600000E346EAFECFCF03F0E3C6E3B681F0EFF
:10FE06003E6EFB0E3D6E010E406E000E3F6E210EE5
:10FE1600426E210E416E0F0E446EA00E436E0F0E03
:10FE2600466EA00E456E100E486E9A0E476E100E68
:10FE36004A6E9A0E496E000E306EC00E2F6E000E80
:10FE4600326E080E316E3B0E336E000E346EAFEC22
:10FE5600FCF03F0E3C6E3B681F0E3E6EEF0E3D6E95
:10FE6600010E406E000E3F6E210E426E210E416E57
:10FE76000F0E446EA00E436E0F0E466EA00E456E1C
:10FE8600100E486E9A0E476E100E4A6E9A0E496E06
:10FE9600000E306EC80E2F6E000E326E080E316EDA
:10FEA6003B0E336E000E346EAFECFCF03F0E3C6E34
:10FEB6003B681F0E3E6EBF0E3D6E010E406E000E7D
:10FEC6003F6E210E426E210E416E0F0E446EA00E45
:10FED600436E0F0E466EA00E456E100E486E9A0EBD
:10FEE600476E100E4A6E9A0E496E000E306ED00E98
:10FEF6002F6E000E326E080E316E3B0E336E000E04
:10FF0600346EAFECFCF03F0E3C6E3B681E0E3E6E50
:10FF16003D68010E406E000E3F6E210E426E210EB0
:10FF2600416E0F0E446EA00E436E0F0E466EA00E6F
:10FF3600456E100E486E9A0E476E100E4A6E9A0E59
:10FF4600496E000E306ED80E2F6E000E326E080E01
:10FF5600316E3B0E336E000E346EAFECFCF0020ECB
:10FF6600026EB20E016E000E306E000E2F6E000E87
:10FF7600326E010E316E01C033F002C034F0AFECC8
:10FF8600FCF0320E066E300E056E040E086E190E6B
:10FF9600076E080E0A6E320E096E000E0C6E000E0B
:10FFA6000B6E000E0E6E000E0D6E000E106E010E24
:10FFB6000F6E000E306E020E2F6E000E326E060EA3
:10FFC600316E010E336E000E346EAFECFCF00F0E88
:10FFD600046E0368000E306E010E2F6E000E326E38
:10FFE600010E316E010E336E000E346EAFECFCF076
:02FFF6001200F7
:06FFF80020F444FFF8F3C1
:00000001FF
