:0400000026EFFCF0FB
:020000040001F9
:10F7F200000E956E000E966E1200F9ECFBF003EC13
:10F80200FCF01200838E839C839A83988396839460
:10F812008392839012000B000C000D000E000F006B
:10F822001000110012001300140015001600C79EEC
:10F83200C79CC69EC698C696C694C682C6909D961A
:10F84200C68A949A9496979E1200180EF66EF80E37
:10F85200F76E010EF86E00EE3BF010EE18F00900A4
:10F86200F5CFEEFFE550E150FAE100EE60F02E0E2A
:10F87200EE6AE806FDE100015FEFFCF009C001F06D
:10F882000AC002F0000E046E0A0E036EE6ECFCF0F3
:10F8920001C00CF002C00DF008D0210E0B6E760EE6
:10F8A200E82EFED70B2EFCD700D00C06D8A00D06F2
:10F8B2000C28F3E10D28D8B41200EFD7010E0A6E1E
:10F8C200F40E096E3FECFCF0FEECFBF018ECFCF0E1
:10F8D20092ECFDF0000E386E170E376E000E3A6E87
:10F8E200000E396E000E0A6E640E096E3FECFCF0DB
:10F8F200829437C001F038C002F039C003F03AC038
:10F9020004F086ECFCF08284EDD701500D6E0E6A95
:10F9120002500F6E106A0350116E126A0450136E79
:10F92200146A0FC0C9FFC7A0FED7C9CF05F0066A87
:10F932000DC0C9FFC7A0FED7C9CF07F0086A13C020
:10F94200C9FFC7A0FED7C9CF09F00A6A11C0C9FF13
:10F95200C7A0FED7C9CF0BF00C6A1200E00E246ECE
:10F96200000E236E000E266E000E256E19D01B505F
:10F972002524216E1C502620226E2350212624503D
:10F982002222D8902534D96E2634DA6E230ED92657
:10F99200000EDA2221C0DEFF22C0DDFF254A262A20
:10F9A2001D50255C1E502658D8A0E1D7230E016EAB
:10F9B200000E026E1DC003F01EC004F01FC005F051
:10F9C20020C006F028ECFDF01200000E066E04AE18
:10F9D20006D0036C041ED8B0042A010E066E02AED5
:10F9E20006D0016C021ED8B0022A010E061A000EC1
:10F9F200086E000E076E03500410D8B41CD0010E1E
:10FA0200056E04D0D89003360436052A04AEFAD720
:10FA1200D890073608360350015C04500258D8A02B
:10FA220005D00350015E0450025A0780D890043278
:10FA32000332052EEDD70650D8B404D0076C081E49
:10FA4200D8B0082A07C001F008C002F01200000E68
:10FA52001A6E000E196E5ED0D8901934D96E1A340F
:10FA6200DA6E0150D9260250DA22DECF07F0DDCF5E
:10FA720008F00750116E126AD8901934D96E1A34F0
:10FA8200DA6E0150D9260250DA22DECF07F0DDCF3E
:10FA920008F00850136E146AD8901934D96E1A34CB
:10FAA200DA6E0550D9260650DA22DECF07F0DDCF16
:10FAB20008F00750156E166AD8901934D96E1A34A8
:10FAC200DA6E0550D9260650DA22DECF07F0DDCFF6
:10FAD20008F00850176E186A13C0C9FFC7A0FED7F6
:10FAE200C9CF09F00A6A11C0C9FFC7A0FED7C9CFA2
:10FAF2000BF00C6A17C0C9FFC7A0FED7C9CF0DF023
:10FB02000E6A15C0C9FFC7A0FED7C9CF0FF0106A91
:10FB1200194A1A2A0350195C04501A58D8B0120014
:10FB22009BD73F0E286EFE0E276E1F0E2A6E296887
:10FB3200010E2C6E000E2B6E210E2E6E210E2D6EDE
:10FB42000F0E306EA00E2F6E0F0E326EA00E316EA3
:10FB5200100E346E9A0E336E100E366E9A0E356E8D
:10FB6200000E1C6E800E1B6E000E1E6E080E1D6EA9
:10FB7200270E1F6E000E206EAFECFCF03F0E286EBB
:10FB8200FB0E276E1F0E2A6E2968010E2C6E000EC8
:10FB92002B6E210E2E6E210E2D6E0F0E306EA00ECC
:10FBA2002F6E0F0E326EA00E316E100E346E9A0E44
:10FBB200336E100E366E9A0E356E000E1C6E880E67
:10FBC2001B6E000E1E6E080E1D6E270E1F6E000E9F
:10FBD200206EAFECFCF03F0E286EEF0E276E1F0E6C
:10FBE2002A6E2968010E2C6E000E2B6E210E2E6ECF
:10FBF200210E2D6E0F0E306EA00E2F6E0F0E326E76
:10FC0200A00E316E100E346E9A0E336E100E366EDA
:10FC12009A0E356E000E1C6E900E1B6E000E1E6E3E
:10FC2200080E1D6E270E1F6E000E206EAFECFCF04C
:10FC32003F0E286EBF0E276E1F0E2A6E2968010E18
:10FC42002C6E000E2B6E210E2E6E210E2D6E0F0EBF
:10FC5200306EA00E2F6E0F0E326EA00E316E100E91
:10FC6200346E9A0E336E100E366E9A0E356E000E8C
:10FC72001C6E980E1B6E000E1E6E080E1D6E270E59
:10FC82001F6E000E206EAFECFCF03E0E286E276851
:10FC92001F0E2A6E2968010E2C6E000E2B6E210E8D
:10FCA2002E6E210E2D6E0F0E306EA00E2F6E0F0EC9
:10FCB200326EA00E316E100E346E9A0E336E100E2E
:10FCC200366E9A0E356E000E1C6EA00E1B6E000E66
:10FCD2001E6E080E1D6E270E1F6E000E206EAFECFC
:10FCE200FCF03B0E286E27681F0E2A6E2968010E53
:10FCF2002C6E000E2B6E210E2E6E210E2D6E0F0E0F
:10FD0200306EA00E2F6E0F0E326EA00E316E100EE0
:10FD1200346E9A0E336E100E366E9A0E356E000EDB
:10FD22001C6EA80E1B6E000E1E6E080E1D6E270E98
:10FD32001F6E000E206EAFECFCF02F0E286E2768AF
:10FD42001F0E2A6E2968010E2C6E000E2B6E210EDC
:10FD52002E6E210E2D6E0F0E306EA00E2F6E0F0E18
:10FD6200326EA00E316E100E346E9A0E336E100E7D
:10FD7200366E9A0E356E000E1C6EB00E1B6E000EA5
:10FD82001E6E080E1D6E270E1F6E000E206EAFEC4B
:10FD9200FCF03F0E286E27681F0E2A6EFE0E296E9B
:10FDA200010E2C6E000E2B6E210E2E6E210E2D6E6C
:10FDB2000F0E306EA00E2F6E0F0E326EA00E316E31
:10FDC200100E346E9A0E336E100E366E9A0E356E1B
:10FDD200000E1C6EB80E1B6E000E1E6E080E1D6EFF
:10FDE200270E1F6E000E206EAFECFCF03F0E286E49
:10FDF20027681F0E2A6EFB0E296E010E2C6E000E56
:10FE02002B6E210E2E6E210E2D6E0F0E306EA00E59
:10FE12002F6E0F0E326EA00E316E100E346E9A0ED1
:10FE2200336E100E366E9A0E356E000E1C6EC00EBC
:10FE32001B6E000E1E6E080E1D6E270E1F6E000E2C
:10FE4200206EAFECFCF03F0E286E27681F0E2A6E64
:10FE5200EF0E296E010E2C6E000E2B6E210E2E6EF1
:10FE6200210E2D6E0F0E306EA00E2F6E0F0E326E03
:10FE7200A00E316E100E346E9A0E336E100E366E68
:10FE82009A0E356E000E1C6EC80E1B6E000E1E6E94
:10FE9200080E1D6E270E1F6E000E206EAFECFCF0DA
:10FEA2003F0E286E27681F0E2A6EBF0E296E010EA6
:10FEB2002C6E000E2B6E210E2E6E210E2D6E0F0E4D
:10FEC200306EA00E2F6E0F0E326EA00E316E100E1F
:10FED200346E9A0E336E100E366E9A0E356E000E1A
:10FEE2001C6ED00E1B6E000E1E6E080E1D6E270EAF
:10FEF2001F6E000E206EAFECFCF03F0E286E2768DE
:10FF02001E0E2A6E2968010E2C6E000E2B6E210E1B
:10FF12002E6E210E2D6E0F0E306EA00E2F6E0F0E56
:10FF2200326EA00E316E100E346E9A0E336E100EBB
:10FF3200366E9A0E356E000E1C6ED80E1B6E000EBB
:10FF42001E6E080E1D6E270E1F6E000E206EAFEC89
:10FF5200FCF0020E0001616FB20E606F000E1C6EAB
:10FF6200000E1B6E000E1E6E010E1D6E60C01FF095
:10FF720061C020F0AFECFCF0320E0001656F300E74
:10FF8200646F040E0001676F190E666F080E0001A0
:10FF9200696F320E686F000E00016B6F000E6A6FA0
:10FFA200000E00016D6F000E6C6F000E00016F6F8E
:10FFB200010E6E6F000E1C6E020E1B6E000E1E6E88
:10FFC200060E1D6E600E1F6E000E206EAFECFCF072
:10FFD2000F0E0001636F6269000E1C6E010E1B6E34
:10FFE200000E1E6E010E1D6E600E1F6E000E206E44
:06FFF200AFECFCF0120070
:06FFF80020F444FFF8F3C1
:00000001FF
