:040000007FEFFFF09F
:020000040001F9
:10FEFE00000182EFFFF0000E956E838E839C839A35
:10FF0E0083988396839483928390010E0A6EF40EE7
:10FF1E00096E9AECFFF0839E010E0A6EF40E096EC6
:10FF2E009AECFFF0EAD709C001F00AC002F0000E09
:10FF3E00046E0A0E036EBAECFFF001C00CF002C0A4
:10FF4E000DF008D0210E0B6E760EE82EFED70B2E7E
:10FF5E00FCD700D00C06D8A00D060C28F3E10D2816
:10FF6E00D8B41200EFD7000E066E04AE06D0036CA6
:10FF7E00041ED8B0042A010E066E02AE06D0016C25
:10FF8E00021ED8B0022A010E061A000E086E000ECE
:10FF9E00076E03500410D8B41CD0010E056E04D0A9
:10FFAE00D89003360436052A04AEFAD7D890073611
:10FFBE0008360350015C04500258D8A005D00350F7
:10FFCE00015E0450025A0780D89004320332052E87
:10FFDE00EDD70650D8B404D0076C081ED8B0082A46
:0AFFEE0007C001F008C002F0120085
:06FFF80020F444FFF8F3C1
:00000001FF
